{
  "contractName": "Lotto",
  "abi": [
    {
      "constant": true,
      "inputs": [],
      "name": "lastBlock",
      "outputs": [
        {
          "name": "",
          "type": "uint256"
        }
      ],
      "payable": false,
      "stateMutability": "view",
      "type": "function"
    },
    {
      "inputs": [],
      "payable": false,
      "stateMutability": "nonpayable",
      "type": "constructor"
    },
    {
      "constant": false,
      "inputs": [
        {
          "name": "_betAmount",
          "type": "uint256"
        },
        {
          "name": "_betChosen",
          "type": "uint256"
        }
      ],
      "name": "PlaceBet",
      "outputs": [],
      "payable": true,
      "stateMutability": "payable",
      "type": "function"
    },
    {
      "constant": true,
      "inputs": [
        {
          "name": "_value",
          "type": "uint256"
        }
      ],
      "name": "testTwo",
      "outputs": [
        {
          "name": "",
          "type": "bool"
        }
      ],
      "payable": false,
      "stateMutability": "view",
      "type": "function"
    },
    {
      "constant": true,
      "inputs": [
        {
          "name": "_value",
          "type": "uint256"
        }
      ],
      "name": "testThree",
      "outputs": [
        {
          "name": "",
          "type": "bool"
        }
      ],
      "payable": false,
      "stateMutability": "view",
      "type": "function"
    },
    {
      "constant": true,
      "inputs": [],
      "name": "testThreeAddress",
      "outputs": [
        {
          "name": "",
          "type": "address"
        }
      ],
      "payable": false,
      "stateMutability": "view",
      "type": "function"
    },
    {
      "constant": true,
      "inputs": [
        {
          "name": "_value",
          "type": "uint256"
        }
      ],
      "name": "testFive",
      "outputs": [
        {
          "name": "",
          "type": "bool"
        }
      ],
      "payable": false,
      "stateMutability": "view",
      "type": "function"
    },
    {
      "constant": true,
      "inputs": [],
      "name": "testFiveAddress",
      "outputs": [
        {
          "name": "",
          "type": "address"
        }
      ],
      "payable": false,
      "stateMutability": "view",
      "type": "function"
    },
    {
      "constant": true,
      "inputs": [
        {
          "name": "_value",
          "type": "uint256"
        }
      ],
      "name": "testFifty",
      "outputs": [
        {
          "name": "",
          "type": "bool"
        }
      ],
      "payable": false,
      "stateMutability": "view",
      "type": "function"
    },
    {
      "constant": true,
      "inputs": [],
      "name": "testFiftyAddress",
      "outputs": [
        {
          "name": "",
          "type": "address"
        }
      ],
      "payable": false,
      "stateMutability": "view",
      "type": "function"
    },
    {
      "constant": false,
      "inputs": [],
      "name": "payWinners",
      "outputs": [
        {
          "name": "",
          "type": "uint256"
        }
      ],
      "payable": false,
      "stateMutability": "nonpayable",
      "type": "function"
    },
    {
      "constant": false,
      "inputs": [],
      "name": "paySmartContract",
      "outputs": [],
      "payable": true,
      "stateMutability": "payable",
      "type": "function"
    },
    {
      "constant": true,
      "inputs": [],
      "name": "returnContractBalance",
      "outputs": [
        {
          "name": "",
          "type": "uint256"
        }
      ],
      "payable": false,
      "stateMutability": "view",
      "type": "function"
    }
  ],
  "bytecode": "0x60806040523480156200001157600080fd5b506000600190505b6034811015620000755760006002828115156200003257fe5b061415620000675760016009600083815260200190815260200160002060006101000a81548160ff0219169083151502179055505b808060010191505062000019565b6001600c600080815260200190815260200160002060006101000a81548160ff0219169083151502179055506001600c60006034815260200190815260200160002060006101000a81548160ff021916908315150217905550600190505b603481101562000115576001600b600083815260200190815260200160002060006101000a81548160ff021916908315150217905550600a81019050620000d3565b600790505b60348110156200015c576001600b600083815260200190815260200160002060006101000a81548160ff021916908315150217905550600a810190506200011a565b600190505b60348110156200023557600115156009600083815260200190815260200160002060009054906101000a900460ff1615151480620001c3575060011515600b600083815260200190815260200160002060009054906101000a900460ff161515145b80620001f3575060011515600c600083815260200190815260200160002060009054906101000a900460ff161515145b151562000227576001600a600083815260200190815260200160002060006101000a81548160ff0219169083151502179055505b808060010191505062000161565b4360008190555050611729806200024d6000396000f3006080604052600436106100ba576000357c0100000000000000000000000000000000000000000000000000000000900463ffffffff1680631b20bfaa146100bf5780631f37394b146100c95780635337448e1461010e5780635e8dbdd11461013957806365e80b2f1461017e578063806b984f146101d55780638ce8dd06146102005780639c5079fe1461022b578063c88a409814610270578063ccd7f34c1461029a578063eaeda789146102f1578063ee39c45814610336575b600080fd5b6100c761038d565b005b3480156100d557600080fd5b506100f46004803603810190808035906020019092919050505061039e565b604051808215151515815260200191505060405180910390f35b34801561011a57600080fd5b506101236103c8565b6040518082815260200191505060405180910390f35b34801561014557600080fd5b5061016460048036038101908080359060200190929190505050610f66565b604051808215151515815260200191505060405180910390f35b34801561018a57600080fd5b50610193610f90565b604051808273ffffffffffffffffffffffffffffffffffffffff1673ffffffffffffffffffffffffffffffffffffffff16815260200191505060405180910390f35b3480156101e157600080fd5b506101ea610fd2565b6040518082815260200191505060405180910390f35b34801561020c57600080fd5b50610215610fd8565b6040518082815260200191505060405180910390f35b34801561023757600080fd5b5061025660048036038101908080359060200190929190505050610ff7565b604051808215151515815260200191505060405180910390f35b6102986004803603810190808035906020019092919080359060200190929190505050611021565b005b3480156102a657600080fd5b506102af61130a565b604051808273ffffffffffffffffffffffffffffffffffffffff1673ffffffffffffffffffffffffffffffffffffffff16815260200191505060405180910390f35b3480156102fd57600080fd5b5061031c6004803603810190808035906020019092919050505061134c565b604051808215151515815260200191505060405180910390f35b34801561034257600080fd5b5061034b611376565b604051808273ffffffffffffffffffffffffffffffffffffffff1673ffffffffffffffffffffffffffffffffffffffff16815260200191505060405180910390f35b60003411151561039c57600080fd5b565b60006009600083815260200190815260200160002060009054906101000a900460ff169050919050565b6000806000806103d66113b8565b92506009600084815260200190815260200160002060009054906101000a900460ff161561067057600091505b60048054905082101561066b57600090505b600d600060048481548110151561042857fe5b9060005260206000200160009054906101000a900473ffffffffffffffffffffffffffffffffffffffff1673ffffffffffffffffffffffffffffffffffffffff1673ffffffffffffffffffffffffffffffffffffffff1681526020019081526020016000208054905081101561065e576002600d60006004858154811015156104ad57fe5b9060005260206000200160009054906101000a900473ffffffffffffffffffffffffffffffffffffffff1673ffffffffffffffffffffffffffffffffffffffff1673ffffffffffffffffffffffffffffffffffffffff1681526020019081526020016000208281548110151561051f57fe5b90600052602060002090600202016000015414156106515760048281548110151561054657fe5b9060005260206000200160009054906101000a900473ffffffffffffffffffffffffffffffffffffffff1673ffffffffffffffffffffffffffffffffffffffff166108fc6002600d600060048781548110151561059f57fe5b9060005260206000200160009054906101000a900473ffffffffffffffffffffffffffffffffffffffff1673ffffffffffffffffffffffffffffffffffffffff1673ffffffffffffffffffffffffffffffffffffffff1681526020019081526020016000208481548110151561061157fe5b906000526020600020906002020160010154029081150290604051600060405180830381858888f1935050505015801561064f573d6000803e3d6000fd5b505b8080600101915050610415565b8180600101925050610403565b610e37565b600a600084815260200190815260200160002060009054906101000a900460ff161561090857600091505b60058054905082101561090357600090505b600d60006005848154811015156106c057fe5b9060005260206000200160009054906101000a900473ffffffffffffffffffffffffffffffffffffffff1673ffffffffffffffffffffffffffffffffffffffff1673ffffffffffffffffffffffffffffffffffffffff168152602001908152602001600020805490508110156108f6576003600d600060058581548110151561074557fe5b9060005260206000200160009054906101000a900473ffffffffffffffffffffffffffffffffffffffff1673ffffffffffffffffffffffffffffffffffffffff1673ffffffffffffffffffffffffffffffffffffffff168152602001908152602001600020828154811015156107b757fe5b90600052602060002090600202016000015414156108e9576005828154811015156107de57fe5b9060005260206000200160009054906101000a900473ffffffffffffffffffffffffffffffffffffffff1673ffffffffffffffffffffffffffffffffffffffff166108fc6003600d600060058781548110151561083757fe5b9060005260206000200160009054906101000a900473ffffffffffffffffffffffffffffffffffffffff1673ffffffffffffffffffffffffffffffffffffffff1673ffffffffffffffffffffffffffffffffffffffff168152602001908152602001600020848154811015156108a957fe5b906000526020600020906002020160010154029081150290604051600060405180830381858888f193505050501580156108e7573d6000803e3d6000fd5b505b80806001019150506106ad565b818060010192505061069b565b610e36565b600b600084815260200190815260200160002060009054906101000a900460ff1615610ba057600091505b600680549050821015610b9b57600090505b600d600060068481548110151561095857fe5b9060005260206000200160009054906101000a900473ffffffffffffffffffffffffffffffffffffffff1673ffffffffffffffffffffffffffffffffffffffff1673ffffffffffffffffffffffffffffffffffffffff16815260200190815260200160002080549050811015610b8e576005600d60006006858154811015156109dd57fe5b9060005260206000200160009054906101000a900473ffffffffffffffffffffffffffffffffffffffff1673ffffffffffffffffffffffffffffffffffffffff1673ffffffffffffffffffffffffffffffffffffffff16815260200190815260200160002082815481101515610a4f57fe5b9060005260206000209060020201600001541415610b8157600682815481101515610a7657fe5b9060005260206000200160009054906101000a900473ffffffffffffffffffffffffffffffffffffffff1673ffffffffffffffffffffffffffffffffffffffff166108fc6005600d6000600687815481101515610acf57fe5b9060005260206000200160009054906101000a900473ffffffffffffffffffffffffffffffffffffffff1673ffffffffffffffffffffffffffffffffffffffff1673ffffffffffffffffffffffffffffffffffffffff16815260200190815260200160002084815481101515610b4157fe5b906000526020600020906002020160010154029081150290604051600060405180830381858888f19350505050158015610b7f573d6000803e3d6000fd5b505b8080600101915050610945565b8180600101925050610933565b610e35565b600c600084815260200190815260200160002060009054906101000a900460ff1615610e3457600091505b600780549050821015610e3357600090505b600d6000600784815481101515610bf057fe5b9060005260206000200160009054906101000a900473ffffffffffffffffffffffffffffffffffffffff1673ffffffffffffffffffffffffffffffffffffffff1673ffffffffffffffffffffffffffffffffffffffff16815260200190815260200160002080549050811015610e26576032600d6000600785815481101515610c7557fe5b9060005260206000200160009054906101000a900473ffffffffffffffffffffffffffffffffffffffff1673ffffffffffffffffffffffffffffffffffffffff1673ffffffffffffffffffffffffffffffffffffffff16815260200190815260200160002082815481101515610ce757fe5b9060005260206000209060020201600001541415610e1957600782815481101515610d0e57fe5b9060005260206000200160009054906101000a900473ffffffffffffffffffffffffffffffffffffffff1673ffffffffffffffffffffffffffffffffffffffff166108fc6032600d6000600787815481101515610d6757fe5b9060005260206000200160009054906101000a900473ffffffffffffffffffffffffffffffffffffffff1673ffffffffffffffffffffffffffffffffffffffff1673ffffffffffffffffffffffffffffffffffffffff16815260200190815260200160002084815481101515610dd957fe5b906000526020600020906002020160010154029081150290604051600060405180830381858888f19350505050158015610e17573d6000803e3d6000fd5b505b8080600101915050610bdd565b8180600101925050610bcb565b5b5b5b5b600d60003373ffffffffffffffffffffffffffffffffffffffff1673ffffffffffffffffffffffffffffffffffffffff1681526020019081526020016000206000610e82919061164a565b600091505b600880549050821015610f2557600d6000600884815481101515610ea757fe5b9060005260206000200160009054906101000a900473ffffffffffffffffffffffffffffffffffffffff1673ffffffffffffffffffffffffffffffffffffffff1673ffffffffffffffffffffffffffffffffffffffff1681526020019081526020016000206000610f18919061164a565b8180600101925050610e87565b60046000610f33919061166e565b60056000610f41919061166e565b60066000610f4f919061166e565b60076000610f5d919061166e565b82935050505090565b6000600c600083815260200190815260200160002060009054906101000a900460ff169050919050565b600060066000815481101515610fa257fe5b9060005260206000200160009054906101000a900473ffffffffffffffffffffffffffffffffffffffff16905090565b60005481565b60003073ffffffffffffffffffffffffffffffffffffffff1631905090565b6000600a600083815260200190815260200160002060009054906101000a900460ff169050919050565b61102961168f565b823414151561103757600080fd5b604080519081016040528083815260200184815250905060028214156110c25760043390806001815401808255809150509060018203906000526020600020016000909192909190916101000a81548173ffffffffffffffffffffffffffffffffffffffff021916908373ffffffffffffffffffffffffffffffffffffffff1602179055505061121d565b60038214156111365760053390806001815401808255809150509060018203906000526020600020016000909192909190916101000a81548173ffffffffffffffffffffffffffffffffffffffff021916908373ffffffffffffffffffffffffffffffffffffffff1602179055505061121c565b60058214156111aa5760063390806001815401808255809150509060018203906000526020600020016000909192909190916101000a81548173ffffffffffffffffffffffffffffffffffffffff021916908373ffffffffffffffffffffffffffffffffffffffff1602179055505061121b565b603282141561121a5760073390806001815401808255809150509060018203906000526020600020016000909192909190916101000a81548173ffffffffffffffffffffffffffffffffffffffff021916908373ffffffffffffffffffffffffffffffffffffffff160217905550505b5b5b5b60083390806001815401808255809150509060018203906000526020600020016000909192909190916101000a81548173ffffffffffffffffffffffffffffffffffffffff021916908373ffffffffffffffffffffffffffffffffffffffff16021790555050600d60003373ffffffffffffffffffffffffffffffffffffffff1673ffffffffffffffffffffffffffffffffffffffff16815260200190815260200160002081908060018154018082558091505090600182039060005260206000209060020201600090919290919091506000820151816000015560208201518160010155505050505050565b60006005600081548110151561131c57fe5b9060005260206000200160009054906101000a900473ffffffffffffffffffffffffffffffffffffffff16905090565b6000600b600083815260200190815260200160002060009054906101000a900460ff169050919050565b60006007600081548110151561138857fe5b9060005260206000200160009054906101000a900473ffffffffffffffffffffffffffffffffffffffff16905090565b6000806000604c60024233600054604051602001808481526020018373ffffffffffffffffffffffffffffffffffffffff1673ffffffffffffffffffffffffffffffffffffffff166c0100000000000000000000000002815260140182815260200193505050506040516020818303038152906040526040518082805190602001908083835b602083101515611463578051825260208201915060208101905060208303925061143e565b6001836020036101000a0380198251168184511680821785525050505050509050019150506020604051808303816000865af11580156114a7573d6000803e3d6000fd5b5050506040513d60208110156114bc57600080fd5b8101908080519060200190929190505050600190048115156114da57fe5b06915060008081548092919060010191905055506034821115611642576000808154809291906001019190505550604c60024233600054604051602001808481526020018373ffffffffffffffffffffffffffffffffffffffff1673ffffffffffffffffffffffffffffffffffffffff166c0100000000000000000000000002815260140182815260200193505050506040516020818303038152906040526040518082805190602001908083835b6020831015156115ae5780518252602082019150602081019050602083039250611589565b6001836020036101000a0380198251168184511680821785525050505050509050019150506020604051808303816000865af11580156115f2573d6000803e3d6000fd5b5050506040513d602081101561160757600080fd5b81019080805190602001909291905050506001900481151561162557fe5b069050603481111561163b578181039150611641565b80820391505b5b819250505090565b508054600082556002029060005260206000209081019061166b91906116a9565b50565b508054600082559060005260206000209081019061168c91906116d8565b50565b604080519081016040528060008152602001600081525090565b6116d591905b808211156116d1576000808201600090556001820160009055506002016116af565b5090565b90565b6116fa91905b808211156116f65760008160009055506001016116de565b5090565b905600a165627a7a72305820a613e6a5eaac3a9c13be5a92783d484cb2011c591bb841f418ffb1ab36c352da0029",
  "source": "pragma solidity ^0.4.20;\r\ncontract Lotto {\r\n    uint public lastBlock;\r\n    address[] accounts;\r\n    mapping(string => uint) luckyNum;\r\n    mapping(address => uint) balances;\r\n    address[] twoMultiplyer;\r\n    address[] threeMultiplyer;\r\n    address[] fiveMultiplyer;\r\n    address[] fiftyMultiplyer;\r\n    address[] allBets;\r\n\r\n    struct betType{\r\n        uint betChosen;\r\n        uint256 value;\r\n    }\r\n    mapping (uint => bool) twoMultiplyerValue;\r\n    mapping (uint => bool) threeMultiplyerValue;\r\n    mapping (uint => bool) fiveMultiplyerValue;\r\n    mapping (uint => bool) fiftyMultiplyerValue;\r\n    mapping(address => betType[]) userBets;\r\n\r\n    constructor()public{ //Runs only at creation\r\n        for (uint i = 1;i<52;i++){\r\n            if(i % 2 ==0){\r\n                twoMultiplyerValue[i] = true;\r\n            }\r\n        }\r\n\r\n        fiftyMultiplyerValue[0] =true;\r\n        fiftyMultiplyerValue[52] =true;\r\n        for ( i = 1;i<52;i+=10){\r\n            fiveMultiplyerValue[i] = true;\r\n        }\r\n        for ( i = 7;i<52;i+=10){\r\n            fiveMultiplyerValue[i] = true;\r\n        }\r\n        for (i = 1;i<52;i++){\r\n            if(!((twoMultiplyerValue[i]==true) || (fiveMultiplyerValue[i]==true) || (fiftyMultiplyerValue[i]==true))){\r\n                threeMultiplyerValue[i] =true;\r\n            }\r\n\r\n        }\r\n\r\n\r\n        lastBlock = block.number;\r\n    }\r\n\r\n    function PlaceBet(uint256 _betAmount,uint _betChosen) public payable{\r\n        require(msg.value == _betAmount);\r\n        betType memory placeBet = betType({\r\n            betChosen: _betChosen,\r\n            value: _betAmount\r\n            });\r\n        if(_betChosen == 2){\r\n            twoMultiplyer.push(msg.sender);\r\n\r\n        } else if(_betChosen == 3){\r\n            threeMultiplyer.push(msg.sender);\r\n\r\n        } else if(_betChosen == 5){\r\n            fiveMultiplyer.push(msg.sender);\r\n\r\n        } else if(_betChosen == 50){\r\n            fiftyMultiplyer.push(msg.sender);\r\n\r\n        }\r\n        allBets.push(msg.sender);\r\n        userBets[msg.sender].push(placeBet);\r\n\r\n    }\r\n    //3000000000000000000\r\n\r\n    function testTwo(uint _value)public view returns(bool){\r\n        return twoMultiplyerValue[_value];\r\n    }\r\n\r\n\r\n    function testThree(uint _value)public view returns(bool){\r\n        return threeMultiplyerValue[_value];\r\n    }\r\n    function testThreeAddress()public view returns(address){\r\n        return threeMultiplyer[0];\r\n    }\r\n\r\n    function testFive(uint _value)public view returns(bool){\r\n        return fiveMultiplyerValue[_value];\r\n    }\r\n    function testFiveAddress()public view returns(address){\r\n        return fiveMultiplyer[0];\r\n    }\r\n\r\n    function testFifty(uint _value)public view returns(bool){\r\n        return fiftyMultiplyerValue[_value];\r\n    }\r\n    function testFiftyAddress()public view returns(address){\r\n        return fiftyMultiplyer[0];\r\n    }\r\n\r\n\r\n\r\n    function generateRandomNum()private returns (uint){\r\n        uint randomnumber = uint(sha256(abi.encodePacked(now, msg.sender, lastBlock))) % 76;\r\n        lastBlock++;\r\n        if(randomnumber >52){\r\n            lastBlock++;\r\n            uint randomnumber2 = uint(sha256(abi.encodePacked(now, msg.sender, lastBlock))) % 76;\r\n\r\n            if(randomnumber2>52){\r\n                randomnumber = randomnumber2 - randomnumber;\r\n            } else{\r\n                randomnumber = randomnumber - randomnumber2;\r\n            }\r\n        }\r\n\r\n        return(randomnumber);\r\n    }\r\n\r\n    function payWinners() public returns (uint){\r\n        uint winningNum = generateRandomNum();\r\n        uint i;\r\n        uint j;\r\n        if (twoMultiplyerValue[winningNum]){\r\n            for( i = 0; i<twoMultiplyer.length;i++){\r\n                for(  j = 0;j<userBets[twoMultiplyer[i]].length;j++){\r\n                    if(userBets[twoMultiplyer[i]][j].betChosen == 2){\r\n                        twoMultiplyer[i].transfer((userBets[twoMultiplyer[i]][j].value*2));\r\n                    }\r\n                }\r\n            }\r\n        } else if (threeMultiplyerValue[winningNum]){\r\n            for( i = 0; i<threeMultiplyer.length;i++){\r\n                for(  j = 0;j<userBets[threeMultiplyer[i]].length;j++){\r\n                    if(userBets[threeMultiplyer[i]][j].betChosen == 3){\r\n                        threeMultiplyer[i].transfer((userBets[threeMultiplyer[i]][j].value*3));\r\n                    }\r\n                }\r\n            }\r\n        }else if (fiveMultiplyerValue[winningNum]){\r\n            for( i = 0; i<fiveMultiplyer.length;i++){\r\n                for(  j = 0;j<userBets[fiveMultiplyer[i]].length;j++){\r\n                    if(userBets[fiveMultiplyer[i]][j].betChosen == 5){\r\n                        fiveMultiplyer[i].transfer((userBets[fiveMultiplyer[i]][j].value*5));\r\n                    }\r\n                }\r\n            }\r\n        }else if (fiftyMultiplyerValue[winningNum]){\r\n            for( i = 0; i<fiftyMultiplyer.length;i++){\r\n                for(  j = 0;j<userBets[fiftyMultiplyer[i]].length;j++){\r\n                    if(userBets[fiftyMultiplyer[i]][j].betChosen == 50){\r\n                        fiftyMultiplyer[i].transfer((userBets[fiftyMultiplyer[i]][j].value*50));\r\n                    }\r\n                }\r\n            }\r\n        }\r\n        delete userBets[msg.sender];\r\n        for(i = 0; i <allBets.length;i++){\r\n            delete userBets[allBets[i]];\r\n        }\r\n        delete twoMultiplyer;\r\n        delete threeMultiplyer;\r\n        delete fiveMultiplyer;\r\n        delete fiftyMultiplyer;\r\n\r\n        return winningNum;\r\n    }\r\n\r\n    function paySmartContract() public payable{\r\n        require(msg.value>0);\r\n    }\r\n\r\n    function returnContractBalance () public view returns(uint256){\r\n        return  address(this).balance;\r\n    }\r\n\r\n\r\n}",
  "sourcePath": "C:\\Users\\Jo\\Downloads\\TRON DEV\\ProvablyFairTRX\\tron\\contracts\\LetsRoll.sol",
  "compiler": {
    "name": "solc",
    "version": "0.4.24-develop.2018.8.28+commit.3ba0cdec.mod.Emscripten.clang"
  },
  "schemaVersion": "2.0.1",
  "updatedAt": "2019-02-05T07:56:01.010Z"
}