{
  "contractName": "RpsGame",
  "abi": [
    {
      "constant": true,
      "inputs": [
        {
          "name": "",
          "type": "uint256"
        }
      ],
      "name": "games",
      "outputs": [
        {
          "name": "dealer",
          "type": "address"
        },
        {
          "name": "dealerValue",
          "type": "uint256"
        },
        {
          "name": "dealerHash",
          "type": "bytes32"
        },
        {
          "name": "dealerChoice",
          "type": "uint8"
        },
        {
          "name": "player",
          "type": "address"
        },
        {
          "name": "playerChoice",
          "type": "uint8"
        },
        {
          "name": "playerValue",
          "type": "uint256"
        },
        {
          "name": "result",
          "type": "uint8"
        },
        {
          "name": "gameValue",
          "type": "uint256"
        },
        {
          "name": "closed",
          "type": "bool"
        }
      ],
      "payable": false,
      "stateMutability": "view",
      "type": "function"
    },
    {
      "constant": true,
      "inputs": [],
      "name": "expireTimeLimit",
      "outputs": [
        {
          "name": "",
          "type": "uint256"
        }
      ],
      "payable": false,
      "stateMutability": "view",
      "type": "function"
    },
    {
      "constant": true,
      "inputs": [],
      "name": "DRAW",
      "outputs": [
        {
          "name": "",
          "type": "uint8"
        }
      ],
      "payable": false,
      "stateMutability": "view",
      "type": "function"
    },
    {
      "constant": true,
      "inputs": [],
      "name": "NONE",
      "outputs": [
        {
          "name": "",
          "type": "uint8"
        }
      ],
      "payable": false,
      "stateMutability": "view",
      "type": "function"
    },
    {
      "constant": true,
      "inputs": [
        {
          "name": "",
          "type": "uint256"
        },
        {
          "name": "",
          "type": "uint256"
        }
      ],
      "name": "payoff",
      "outputs": [
        {
          "name": "",
          "type": "uint8"
        }
      ],
      "payable": false,
      "stateMutability": "view",
      "type": "function"
    },
    {
      "constant": true,
      "inputs": [],
      "name": "SCISSORS",
      "outputs": [
        {
          "name": "",
          "type": "uint8"
        }
      ],
      "payable": false,
      "stateMutability": "view",
      "type": "function"
    },
    {
      "constant": true,
      "inputs": [],
      "name": "ROCK",
      "outputs": [
        {
          "name": "",
          "type": "uint8"
        }
      ],
      "payable": false,
      "stateMutability": "view",
      "type": "function"
    },
    {
      "constant": true,
      "inputs": [],
      "name": "PAPER",
      "outputs": [
        {
          "name": "",
          "type": "uint8"
        }
      ],
      "payable": false,
      "stateMutability": "view",
      "type": "function"
    },
    {
      "constant": true,
      "inputs": [],
      "name": "DEALERWIN",
      "outputs": [
        {
          "name": "",
          "type": "uint8"
        }
      ],
      "payable": false,
      "stateMutability": "view",
      "type": "function"
    },
    {
      "constant": true,
      "inputs": [
        {
          "name": "",
          "type": "address"
        },
        {
          "name": "",
          "type": "uint256"
        }
      ],
      "name": "gameidsOf",
      "outputs": [
        {
          "name": "",
          "type": "uint256"
        }
      ],
      "payable": false,
      "stateMutability": "view",
      "type": "function"
    },
    {
      "constant": true,
      "inputs": [],
      "name": "PLAYERWIN",
      "outputs": [
        {
          "name": "",
          "type": "uint8"
        }
      ],
      "payable": false,
      "stateMutability": "view",
      "type": "function"
    },
    {
      "constant": true,
      "inputs": [],
      "name": "maxgame",
      "outputs": [
        {
          "name": "",
          "type": "uint256"
        }
      ],
      "payable": false,
      "stateMutability": "view",
      "type": "function"
    },
    {
      "inputs": [],
      "payable": false,
      "stateMutability": "nonpayable",
      "type": "constructor"
    },
    {
      "anonymous": false,
      "inputs": [
        {
          "indexed": false,
          "name": "gameid",
          "type": "uint256"
        },
        {
          "indexed": false,
          "name": "dealer",
          "type": "address"
        },
        {
          "indexed": false,
          "name": "amount",
          "type": "uint256"
        }
      ],
      "name": "CreateGame",
      "type": "event"
    },
    {
      "anonymous": false,
      "inputs": [
        {
          "indexed": false,
          "name": "gameid",
          "type": "uint256"
        },
        {
          "indexed": false,
          "name": "player",
          "type": "address"
        },
        {
          "indexed": false,
          "name": "amount",
          "type": "uint256"
        }
      ],
      "name": "JoinGame",
      "type": "event"
    },
    {
      "anonymous": false,
      "inputs": [
        {
          "indexed": false,
          "name": "gameid",
          "type": "uint256"
        },
        {
          "indexed": false,
          "name": "player",
          "type": "address"
        },
        {
          "indexed": false,
          "name": "choice",
          "type": "uint8"
        }
      ],
      "name": "Reveal",
      "type": "event"
    },
    {
      "anonymous": false,
      "inputs": [
        {
          "indexed": false,
          "name": "gameid",
          "type": "uint256"
        },
        {
          "indexed": false,
          "name": "dealer",
          "type": "address"
        },
        {
          "indexed": false,
          "name": "player",
          "type": "address"
        },
        {
          "indexed": false,
          "name": "result",
          "type": "uint8"
        },
        {
          "indexed": false,
          "name": "value",
          "type": "uint256"
        }
      ],
      "name": "CloseGame",
      "type": "event"
    },
    {
      "constant": false,
      "inputs": [
        {
          "name": "dealerHash",
          "type": "bytes32"
        },
        {
          "name": "value",
          "type": "uint256"
        }
      ],
      "name": "createGame",
      "outputs": [
        {
          "name": "",
          "type": "uint256"
        }
      ],
      "payable": true,
      "stateMutability": "payable",
      "type": "function"
    },
    {
      "constant": false,
      "inputs": [
        {
          "name": "gameid",
          "type": "uint256"
        },
        {
          "name": "choice",
          "type": "uint8"
        }
      ],
      "name": "joinGame",
      "outputs": [
        {
          "name": "",
          "type": "uint256"
        }
      ],
      "payable": true,
      "stateMutability": "payable",
      "type": "function"
    },
    {
      "constant": false,
      "inputs": [
        {
          "name": "gameid",
          "type": "uint256"
        },
        {
          "name": "choice",
          "type": "uint8"
        },
        {
          "name": "randomSecret",
          "type": "bytes32"
        }
      ],
      "name": "reveal",
      "outputs": [
        {
          "name": "",
          "type": "bool"
        }
      ],
      "payable": false,
      "stateMutability": "nonpayable",
      "type": "function"
    },
    {
      "constant": false,
      "inputs": [
        {
          "name": "gameid",
          "type": "uint256"
        }
      ],
      "name": "close",
      "outputs": [
        {
          "name": "",
          "type": "bool"
        }
      ],
      "payable": false,
      "stateMutability": "nonpayable",
      "type": "function"
    },
    {
      "constant": true,
      "inputs": [
        {
          "name": "sender",
          "type": "address"
        },
        {
          "name": "choice",
          "type": "uint8"
        },
        {
          "name": "randomSecret",
          "type": "bytes32"
        }
      ],
      "name": "getProof",
      "outputs": [
        {
          "name": "",
          "type": "bytes32"
        }
      ],
      "payable": false,
      "stateMutability": "pure",
      "type": "function"
    },
    {
      "constant": true,
      "inputs": [
        {
          "name": "owner",
          "type": "address"
        }
      ],
      "name": "gameCountOf",
      "outputs": [
        {
          "name": "",
          "type": "uint256"
        }
      ],
      "payable": false,
      "stateMutability": "view",
      "type": "function"
    },
    {
      "constant": true,
      "inputs": [
        {
          "name": "choice",
          "type": "uint8"
        }
      ],
      "name": "checkChoice",
      "outputs": [
        {
          "name": "",
          "type": "bool"
        }
      ],
      "payable": false,
      "stateMutability": "pure",
      "type": "function"
    },
    {
      "constant": true,
      "inputs": [
        {
          "name": "secret",
          "type": "string"
        }
      ],
      "name": "createSecretHash",
      "outputs": [
        {
          "name": "",
          "type": "bytes32"
        }
      ],
      "payable": false,
      "stateMutability": "pure",
      "type": "function"
    },
    {
      "constant": false,
      "inputs": [],
      "name": "withdrawAllFunds",
      "outputs": [],
      "payable": false,
      "stateMutability": "nonpayable",
      "type": "function"
    }
  ],
  "bytecode": "0x6080604052336000806101000a81548173ffffffffffffffffffffffffffffffffffffffff021916908373ffffffffffffffffffffffffffffffffffffffff16021790555033600160006101000a81548173ffffffffffffffffffffffffffffffffffffffff021916908373ffffffffffffffffffffffffffffffffffffffff16021790555033600260006101000a81548173ffffffffffffffffffffffffffffffffffffffff021916908373ffffffffffffffffffffffffffffffffffffffff16021790555060006006556107086007553480156100dd57600080fd5b50606560036000600a60ff1681526020019081526020016000206000600a60ff16815260200190815260200160002060006101000a81548160ff021916908360ff160217905550606660036000600a60ff1681526020019081526020016000206000601460ff16815260200190815260200160002060006101000a81548160ff021916908360ff16021790555060c960036000600a60ff1681526020019081526020016000206000601e60ff16815260200190815260200160002060006101000a81548160ff021916908360ff16021790555060c960036000601460ff1681526020019081526020016000206000600a60ff16815260200190815260200160002060006101000a81548160ff021916908360ff160217905550606560036000601460ff1681526020019081526020016000206000601460ff16815260200190815260200160002060006101000a81548160ff021916908360ff160217905550606660036000601460ff1681526020019081526020016000206000601e60ff16815260200190815260200160002060006101000a81548160ff021916908360ff160217905550606660036000601e60ff1681526020019081526020016000206000600a60ff16815260200190815260200160002060006101000a81548160ff021916908360ff16021790555060c960036000601e60ff1681526020019081526020016000206000601460ff16815260200190815260200160002060006101000a81548160ff021916908360ff160217905550606560036000601e60ff1681526020019081526020016000206000601e60ff16815260200190815260200160002060006101000a81548160ff021916908360ff1602179055506065600360008060ff16815260200190815260200160002060008060ff16815260200190815260200160002060006101000a81548160ff021916908360ff16021790555060c960036000600a60ff16815260200190815260200160002060008060ff16815260200190815260200160002060006101000a81548160ff021916908360ff16021790555060c960036000601460ff16815260200190815260200160002060008060ff16815260200190815260200160002060006101000a81548160ff021916908360ff16021790555060c960036000601e60ff16815260200190815260200160002060008060ff16815260200190815260200160002060006101000a81548160ff021916908360ff1602179055506066600360008060ff1681526020019081526020016000206000600a60ff16815260200190815260200160002060006101000a81548160ff021916908360ff1602179055506066600360008060ff1681526020019081526020016000206000601460ff16815260200190815260200160002060006101000a81548160ff021916908360ff1602179055506066600360008060ff1681526020019081526020016000206000601e60ff16815260200190815260200160002060006101000a81548160ff021916908360ff16021790555061161a806105456000396000f30060806040526004361061011d576000357c0100000000000000000000000000000000000000000000000000000000900463ffffffff1680630aebeb4e14610122578063117a5b901461016757806313ffdbfc1461025d578063366f77b7146102b457806349649fbf146102fc5780634f11e07d14610313578063556665db1461038d578063596427aa146103b8578063619d36ef1461043d578063835253941461046e578063960be3741461049f5780639a42f3aa146104f0578063b357a02814610550578063b93e0e3914610581578063c0b9c53c146105b2578063c44d6f87146105f4578063c89605a214610625578063ca6649c514610656578063d5a0932114610697578063df5a1417146106f8578063e38c982514610729575b600080fd5b34801561012e57600080fd5b5061014d60048036038101908080359060200190929190505050610754565b604051808215151515815260200191505060405180910390f35b34801561017357600080fd5b5061019260048036038101908080359060200190929190505050610a7c565b604051808b73ffffffffffffffffffffffffffffffffffffffff1673ffffffffffffffffffffffffffffffffffffffff1681526020018a815260200189600019166000191681526020018860ff1660ff1681526020018773ffffffffffffffffffffffffffffffffffffffff1673ffffffffffffffffffffffffffffffffffffffff1681526020018660ff1660ff1681526020018581526020018460ff1660ff168152602001838152602001821515151581526020019a505050505050505050505060405180910390f35b34801561026957600080fd5b5061029e600480360381019080803573ffffffffffffffffffffffffffffffffffffffff169060200190929190505050610b44565b6040518082815260200191505060405180910390f35b3480156102c057600080fd5b506102e2600480360381019080803560ff169060200190929190505050610b90565b604051808215151515815260200191505060405180910390f35b34801561030857600080fd5b50610311610bc5565b005b34801561031f57600080fd5b5061036f600480360381019080803573ffffffffffffffffffffffffffffffffffffffff169060200190929190803560ff1690602001909291908035600019169060200190929190505050610c46565b60405180826000191660001916815260200191505060405180910390f35b34801561039957600080fd5b506103a2610d1d565b6040518082815260200191505060405180910390f35b3480156103c457600080fd5b5061041f600480360381019080803590602001908201803590602001908080601f0160208091040260200160405190810160405280939291908181526020018383808284378201915050505050509192919290505050610d23565b60405180826000191660001916815260200191505060405180910390f35b34801561044957600080fd5b50610452610e13565b604051808260ff1660ff16815260200191505060405180910390f35b34801561047a57600080fd5b50610483610e18565b604051808260ff1660ff16815260200191505060405180910390f35b3480156104ab57600080fd5b506104d46004803603810190808035906020019092919080359060200190929190505050610e1d565b604051808260ff1660ff16815260200191505060405180910390f35b3480156104fc57600080fd5b5061053660048036038101908080359060200190929190803560ff1690602001909291908035600019169060200190929190505050610e4c565b604051808215151515815260200191505060405180910390f35b34801561055c57600080fd5b50610565611032565b604051808260ff1660ff16815260200191505060405180910390f35b34801561058d57600080fd5b50610596611037565b604051808260ff1660ff16815260200191505060405180910390f35b6105de60048036038101908080356000191690602001909291908035906020019092919050505061103c565b6040518082815260200191505060405180910390f35b34801561060057600080fd5b50610609611264565b604051808260ff1660ff16815260200191505060405180910390f35b34801561063157600080fd5b5061063a611269565b604051808260ff1660ff16815260200191505060405180910390f35b61068160048036038101908080359060200190929190803560ff16906020019092919050505061126e565b6040518082815260200191505060405180910390f35b3480156106a357600080fd5b506106e2600480360381019080803573ffffffffffffffffffffffffffffffffffffffff169060200190929190803590602001909291905050506115b3565b6040518082815260200191505060405180910390f35b34801561070457600080fd5b5061070d6115e3565b604051808260ff1660ff16815260200191505060405180910390f35b34801561073557600080fd5b5061073e6115e8565b6040518082815260200191505060405180910390f35b60008060006004600085815260200190815260200160002091508160070160009054906101000a900460ff1615151561078c57600080fd5b600060ff168260030160009054906101000a900460ff1660ff16141580156107cc5750600060ff168260030160159054906101000a900460ff1660ff1614155b15156107d757600080fd5b600360008360030160009054906101000a900460ff1660ff16815260200190815260200160002060008360030160159054906101000a900460ff1660ff16815260200190815260200160002060009054906101000a900460ff16905060c960ff168160ff1614156108b6578160000160009054906101000a900473ffffffffffffffffffffffffffffffffffffffff1673ffffffffffffffffffffffffffffffffffffffff166108fc83600601549081150290604051600060405180830381858888f193505050501580156108b0573d6000803e3d6000fd5b50610936565b606660ff168160ff161415610935578160030160019054906101000a900473ffffffffffffffffffffffffffffffffffffffff1673ffffffffffffffffffffffffffffffffffffffff166108fc83600601549081150290604051600060405180830381858888f19350505050158015610933573d6000803e3d6000fd5b505b5b60018260070160006101000a81548160ff021916908315150217905550808260050160006101000a81548160ff021916908360ff1602179055507f1fa95301281225a8b2e7fb27c6f28b04c7449bbadefc8ce40bd5cacf1a71b05f848360000160009054906101000a900473ffffffffffffffffffffffffffffffffffffffff168460030160019054906101000a900473ffffffffffffffffffffffffffffffffffffffff16848660060154604051808681526020018573ffffffffffffffffffffffffffffffffffffffff1673ffffffffffffffffffffffffffffffffffffffff1681526020018473ffffffffffffffffffffffffffffffffffffffff1673ffffffffffffffffffffffffffffffffffffffff1681526020018360ff1660ff1681526020018281526020019550505050505060405180910390a1600192505050919050565b60046020528060005260406000206000915090508060000160009054906101000a900473ffffffffffffffffffffffffffffffffffffffff16908060010154908060020154908060030160009054906101000a900460ff16908060030160019054906101000a900473ffffffffffffffffffffffffffffffffffffffff16908060030160159054906101000a900460ff16908060040154908060050160009054906101000a900460ff16908060060154908060070160009054906101000a900460ff1690508a565b6000600560008373ffffffffffffffffffffffffffffffffffffffff1673ffffffffffffffffffffffffffffffffffffffff168152602001908152602001600020805490509050919050565b6000600a60ff168260ff161480610bad5750601460ff168260ff16145b80610bbe5750601e60ff168260ff16145b9050919050565b6000809054906101000a900473ffffffffffffffffffffffffffffffffffffffff1673ffffffffffffffffffffffffffffffffffffffff166108fc3073ffffffffffffffffffffffffffffffffffffffff16319081150290604051600060405180830381858888f19350505050158015610c43573d6000803e3d6000fd5b50565b6000838383604051602001808473ffffffffffffffffffffffffffffffffffffffff1673ffffffffffffffffffffffffffffffffffffffff1681526020018360ff1660ff168152602001826000191660001916815260200193505050506040516020818303038152906040526040518082805190602001908083835b602083101515610ce75780518252602082019150602081019050602083039250610cc2565b6001836020036101000a038019825116818451168082178552505050505050905001915050604051809103902090509392505050565b60075481565b6000816040516020018080602001828103825283818151815260200191508051906020019080838360005b83811015610d69578082015181840152602081019050610d4e565b50505050905090810190601f168015610d965780820380516001836020036101000a031916815260200191505b50925050506040516020818303038152906040526040518082805190602001908083835b602083101515610ddf5780518252602082019150602081019050602083039250610dba565b6001836020036101000a03801982511681845116808217855250505050505090500191505060405180910390209050919050565b606581565b600081565b60036020528160005260406000206020528060005260406000206000915091509054906101000a900460ff1681565b6000806000600460008781526020019081526020016000209150610e71338686610c46565b90508060001916826002015460001916141515610e8d57600080fd5b600060010282600201546000191614151515610ea857600080fd5b610eb185610b90565b1515610ebc57600080fd5b610ed68260030160159054906101000a900460ff16610b90565b1515610ee157600080fd5b3373ffffffffffffffffffffffffffffffffffffffff168260000160009054906101000a900473ffffffffffffffffffffffffffffffffffffffff1673ffffffffffffffffffffffffffffffffffffffff16148015610f4b57508160020154600019168160001916145b1515610f5657600080fd5b848260030160006101000a81548160ff021916908360ff160217905550816001015482600401540182600601819055506064605f836006015402811515610f9957fe5b0482600601819055507fc68416cfb4fec2fce79abcfa27c33ba8c9a63168b3b70d1cd3449b4a973465a8863387604051808481526020018373ffffffffffffffffffffffffffffffffffffffff1673ffffffffffffffffffffffffffffffffffffffff1681526020018260ff1660ff168152602001935050505060405180910390a161102486610754565b506001925050509392505050565b601e81565b600a81565b600080600060010284600019161415151561105657600080fd5b348314151561106457600080fd5b60016006600082825401925050819055506004600060065481526020019081526020016000209050338160000160006101000a81548173ffffffffffffffffffffffffffffffffffffffff021916908373ffffffffffffffffffffffffffffffffffffffff1602179055508281600101819055508381600201816000191690555060008160030160006101000a81548160ff021916908360ff16021790555060008160030160016101000a81548173ffffffffffffffffffffffffffffffffffffffff021916908373ffffffffffffffffffffffffffffffffffffffff160217905550828160040181905550600560003373ffffffffffffffffffffffffffffffffffffffff1673ffffffffffffffffffffffffffffffffffffffff16815260200190815260200160002060065490806001815401808255809150509060018203906000526020600020016000909192909190915055507f0ce7f8d8c912a77f9715dfadc24c9fccf69eeb30c5bf53f068a0f9756d2b408a6006548260000160009054906101000a900473ffffffffffffffffffffffffffffffffffffffff168360010154604051808481526020018373ffffffffffffffffffffffffffffffffffffffff1673ffffffffffffffffffffffffffffffffffffffff168152602001828152602001935050505060405180910390a160065491505092915050565b601481565b60c981565b6000806004600085815260200190815260200160002090508060040154341480156112ea5750600073ffffffffffffffffffffffffffffffffffffffff168160000160009054906101000a900473ffffffffffffffffffffffffffffffffffffffff1673ffffffffffffffffffffffffffffffffffffffff1614155b801561134657503373ffffffffffffffffffffffffffffffffffffffff168160000160009054906101000a900473ffffffffffffffffffffffffffffffffffffffff1673ffffffffffffffffffffffffffffffffffffffff1614155b151561135157600080fd5b600073ffffffffffffffffffffffffffffffffffffffff168160030160019054906101000a900473ffffffffffffffffffffffffffffffffffffffff1673ffffffffffffffffffffffffffffffffffffffff1614806113ff57503373ffffffffffffffffffffffffffffffffffffffff168160030160019054906101000a900473ffffffffffffffffffffffffffffffffffffffff1673ffffffffffffffffffffffffffffffffffffffff16145b151561140a57600080fd5b8060070160009054906101000a900460ff1615151561142857600080fd5b61143183610b90565b151561143c57600080fd5b348160040181905550338160030160016101000a81548173ffffffffffffffffffffffffffffffffffffffff021916908373ffffffffffffffffffffffffffffffffffffffff160217905550828160030160156101000a81548160ff021916908360ff160217905550600560003373ffffffffffffffffffffffffffffffffffffffff1673ffffffffffffffffffffffffffffffffffffffff1681526020019081526020016000208490806001815401808255809150509060018203906000526020600020016000909192909190915055507ff66778a71ad05be3533189f52b3685653815adca5f24272e139571b8e1892f5e848260030160019054906101000a900473ffffffffffffffffffffffffffffffffffffffff168360040154604051808481526020018373ffffffffffffffffffffffffffffffffffffffff1673ffffffffffffffffffffffffffffffffffffffff168152602001828152602001935050505060405180910390a18391505092915050565b6005602052816000526040600020818154811015156115ce57fe5b90600052602060002001600091509150505481565b606681565b600654815600a165627a7a72305820fbef1a2e534bb94d1894a2ad99e21dc3ce27802182a3b3fd616fe8a66916c22c0029",
  "source": "pragma solidity ^0.4.20;\r\n\r\n\r\ncontract RpsGame{\r\n\r\n    /// @dev Constant definition\r\n    uint8 constant public NONE = 0;\r\n    uint8 constant public ROCK = 10;\r\n    uint8 constant public PAPER = 20;\r\n    uint8 constant public SCISSORS = 30;\r\n    uint8 constant public DEALERWIN = 201;\r\n    uint8 constant public PLAYERWIN = 102;\r\n    uint8 constant public DRAW = 101;\r\n\r\n    /// @dev Emited when contract is upgraded\r\n    event CreateGame(uint gameid, address dealer, uint amount);\r\n    event JoinGame(uint gameid, address player, uint amount);\r\n    event Reveal(uint gameid, address player, uint8 choice);\r\n    event CloseGame(uint gameid,address dealer,address player, uint8 result, uint value);\r\n\r\n\r\n    address ceoAddress = msg.sender;\r\n    address cooAddress = msg.sender;\r\n    address cfoAddress = msg.sender;\r\n    /// @dev struct of a game\r\n    struct Game {\r\n        address dealer;\r\n        uint dealerValue;\r\n        bytes32 dealerHash;\r\n        uint8 dealerChoice;\r\n        address player;\r\n        uint8 playerChoice;\r\n        uint playerValue;\r\n        uint8 result;\r\n        uint gameValue;\r\n        bool closed;\r\n    }\r\n\r\n    /// @dev struct of a game\r\n    mapping (uint => mapping(uint => uint8)) public payoff;\r\n    mapping (uint => Game) public games;\r\n    mapping (address => uint[]) public gameidsOf;\r\n\r\n    /// @dev Current game maximum id\r\n    uint public maxgame = 0;\r\n    uint public expireTimeLimit = 30 minutes;\r\n\r\n    /// @dev Initialization contract\r\n    constructor () public {\r\n        payoff[ROCK][ROCK] = DRAW;\r\n        payoff[ROCK][PAPER] = PLAYERWIN;\r\n        payoff[ROCK][SCISSORS] = DEALERWIN;\r\n        payoff[PAPER][ROCK] = DEALERWIN;\r\n        payoff[PAPER][PAPER] = DRAW;\r\n        payoff[PAPER][SCISSORS] = PLAYERWIN;\r\n        payoff[SCISSORS][ROCK] = PLAYERWIN;\r\n        payoff[SCISSORS][PAPER] = DEALERWIN;\r\n        payoff[SCISSORS][SCISSORS] = DRAW;\r\n        payoff[NONE][NONE] = DRAW;\r\n        payoff[ROCK][NONE] = DEALERWIN;\r\n        payoff[PAPER][NONE] = DEALERWIN;\r\n        payoff[SCISSORS][NONE] = DEALERWIN;\r\n        payoff[NONE][ROCK] = PLAYERWIN;\r\n        payoff[NONE][PAPER] = PLAYERWIN;\r\n        payoff[NONE][SCISSORS] = PLAYERWIN;\r\n\r\n\r\n    }\r\n    // struct Game {\r\n    //     address dealer;\r\n    //     uint dealerValue;\r\n    //     bytes32 dealerHash;\r\n    //     uint8 dealerChoice;\r\n    //     address player;\r\n    //     uint8 playerChoice;\r\n    //     uint playerValue;\r\n    //     uint8 result;\r\n    //     bool closed;\r\n    // }\r\n\r\n    /// @dev Create a game\r\n    function createGame(bytes32 dealerHash, uint value) public payable  returns (uint){\r\n        require(dealerHash != 0x0);\r\n        require(value == msg.value);\r\n        maxgame+=1;\r\n        Game storage game = games[maxgame];\r\n\r\n        game.dealer = msg.sender;\r\n        game.dealerValue = value;\r\n        game.dealerHash = dealerHash;\r\n        game.dealerChoice = NONE;\r\n        game.player = 0x0;\r\n        game.playerValue = value;\r\n\r\n        gameidsOf[msg.sender].push(maxgame);\r\n        emit CreateGame(maxgame, game.dealer, game.dealerValue);\r\n\r\n        return maxgame;\r\n\r\n    }\r\n\r\n    /// @dev Join a game\r\n    function joinGame(uint gameid, uint8 choice) public payable  returns (uint){\r\n        Game storage game = games[gameid];\r\n        require(msg.value == game.playerValue && game.dealer != address(0) && game.dealer != msg.sender);\r\n        require(game.player == address(0) || game.player == msg.sender);\r\n        require(!game.closed);\r\n        require(checkChoice(choice));\r\n        game.playerValue = msg.value;\r\n        game.player = msg.sender;\r\n        game.playerChoice = choice;\r\n        gameidsOf[msg.sender].push(gameid);\r\n        emit JoinGame(gameid, game.player, game.playerValue);\r\n        return gameid;\r\n\r\n\r\n    }\r\n\r\n    /// @dev Creator reveals game choice\r\n    function reveal(uint gameid, uint8 choice, bytes32 randomSecret) public returns (bool) {\r\n        Game storage game = games[gameid];\r\n        bytes32 proof = getProof(msg.sender, choice, randomSecret );\r\n\r\n        require(game.dealerHash == proof);\r\n        require(game.dealerHash != 0x0);\r\n        require(checkChoice(choice));\r\n        require(checkChoice(game.playerChoice));\r\n        require(game.dealer == msg.sender && proof == game.dealerHash);\r\n        game.dealerChoice = choice;\r\n        game.gameValue = game.playerValue + game.dealerValue;\r\n        game.gameValue = game.gameValue * 95 /100;\r\n\r\n        emit Reveal(gameid, msg.sender, choice);\r\n\r\n        close(gameid);\r\n\r\n        return true;\r\n\r\n\r\n    }\r\n\r\n    /// @dev Close game settlement rewards\r\n    function close(uint gameid) public returns(bool) {\r\n        Game storage game = games[gameid];\r\n        require(!game.closed);\r\n        require(game.dealerChoice != NONE && game.playerChoice != NONE);\r\n        uint8 result = payoff[game.dealerChoice][game.playerChoice];\r\n\r\n        if(result == DEALERWIN){\r\n            game.dealer.transfer(game.gameValue);\r\n        } else if(result == PLAYERWIN){\r\n            game.player.transfer(game.gameValue);\r\n        }\r\n\r\n        game.closed = true;\r\n        game.result = result;\r\n\r\n        emit CloseGame(gameid, game.dealer, game.player, result, game.gameValue);\r\n\r\n        return true;\r\n    }\r\n\r\n\r\n    function getProof(address sender, uint8 choice, bytes32 randomSecret) public pure returns (bytes32){\r\n        return keccak256(abi.encode(sender, choice, randomSecret));\r\n    }\r\n\r\n    function gameCountOf(address owner) public view returns (uint){\r\n        return gameidsOf[owner].length;\r\n    }\r\n\r\n    function checkChoice(uint8 choice) public pure returns (bool){\r\n        return choice==ROCK||choice==PAPER||choice==SCISSORS;\r\n    }\r\n    function createSecretHash(string secret) public pure returns  (bytes32){\r\n        return keccak256(abi.encode(secret));\r\n    }\r\n\r\n    function withdrawAllFunds() public{\r\n        ceoAddress.transfer(address(this).balance);\r\n    }\r\n\r\n}",
  "sourcePath": "C:\\Users\\Jo\\Downloads\\TRON DEV\\TRXED\\RockPaperScissors\\tron\\contracts\\RPSGAME.sol",
  "compiler": {
    "name": "solc",
    "version": "0.4.24-develop.2018.8.28+commit.3ba0cdec.mod.Emscripten.clang"
  },
  "schemaVersion": "2.0.1",
  "updatedAt": "2019-03-26T09:10:10.812Z"
}