{
  "contractName": "TRXED",
  "abi": [
    {
      "constant": true,
      "inputs": [],
      "name": "lastBlock",
      "outputs": [
        {
          "name": "",
          "type": "uint256"
        }
      ],
      "payable": false,
      "stateMutability": "view",
      "type": "function"
    },
    {
      "inputs": [],
      "payable": false,
      "stateMutability": "nonpayable",
      "type": "constructor"
    },
    {
      "anonymous": false,
      "inputs": [
        {
          "indexed": true,
          "name": "from",
          "type": "address"
        },
        {
          "indexed": true,
          "name": "to",
          "type": "address"
        },
        {
          "indexed": false,
          "name": "value",
          "type": "uint256"
        }
      ],
      "name": "Transfer",
      "type": "event"
    },
    {
      "anonymous": false,
      "inputs": [
        {
          "indexed": false,
          "name": "value",
          "type": "uint256"
        },
        {
          "indexed": false,
          "name": "color",
          "type": "string"
        }
      ],
      "name": "RandResult",
      "type": "event"
    },
    {
      "constant": false,
      "inputs": [
        {
          "name": "_betAmount",
          "type": "uint256"
        },
        {
          "name": "_betChosen",
          "type": "uint256"
        }
      ],
      "name": "PlaceBet",
      "outputs": [],
      "payable": true,
      "stateMutability": "payable",
      "type": "function"
    },
    {
      "constant": false,
      "inputs": [],
      "name": "generateRandNum",
      "outputs": [
        {
          "name": "",
          "type": "uint256"
        },
        {
          "name": "",
          "type": "string"
        }
      ],
      "payable": false,
      "stateMutability": "nonpayable",
      "type": "function"
    },
    {
      "constant": false,
      "inputs": [],
      "name": "payWinners",
      "outputs": [
        {
          "name": "",
          "type": "uint256"
        }
      ],
      "payable": false,
      "stateMutability": "nonpayable",
      "type": "function"
    },
    {
      "constant": false,
      "inputs": [],
      "name": "paySmartContract",
      "outputs": [],
      "payable": true,
      "stateMutability": "payable",
      "type": "function"
    },
    {
      "constant": true,
      "inputs": [],
      "name": "returnContractBalance",
      "outputs": [
        {
          "name": "",
          "type": "uint256"
        }
      ],
      "payable": false,
      "stateMutability": "view",
      "type": "function"
    }
  ],
  "bytecode": "0x60806040523480156200001157600080fd5b506000600190505b6034811015620000755760006002828115156200003257fe5b06141562000067576001600a600083815260200190815260200160002060006101000a81548160ff0219169083151502179055505b808060010191505062000019565b6001600d600080815260200190815260200160002060006101000a81548160ff0219169083151502179055506001600d60006034815260200190815260200160002060006101000a81548160ff021916908315150217905550600190505b603481101562000115576001600c600083815260200190815260200160002060006101000a81548160ff021916908315150217905550600a81019050620000d3565b600790505b60348110156200015c576001600c600083815260200190815260200160002060006101000a81548160ff021916908315150217905550600a810190506200011a565b600190505b6034811015620002355760011515600a600083815260200190815260200160002060009054906101000a900460ff1615151480620001c3575060011515600c600083815260200190815260200160002060009054906101000a900460ff161515145b80620001f3575060011515600d600083815260200190815260200160002060009054906101000a900460ff161515145b151562000227576001600b600083815260200190815260200160002060006101000a81548160ff0219169083151502179055505b808060010191505062000161565b43600081905550506115c0806200024d6000396000f300608060405260043610610078576000357c0100000000000000000000000000000000000000000000000000000000900463ffffffff1680631b20bfaa1461007d5780635337448e146100875780637bc76a17146100b2578063806b984f146101495780638ce8dd0614610174578063c88a40981461019f575b600080fd5b6100856101c9565b005b34801561009357600080fd5b5061009c6101da565b6040518082815260200191505060405180910390f35b3480156100be57600080fd5b506100c7610d76565b6040518083815260200180602001828103825283818151815260200191508051906020019080838360005b8381101561010d5780820151818401526020810190506100f2565b50505050905090810190601f16801561013a5780820380516001836020036101000a031916815260200191505b50935050505060405180910390f35b34801561015557600080fd5b5061015e610f29565b6040518082815260200191505060405180910390f35b34801561018057600080fd5b50610189610f2f565b6040518082815260200191505060405180910390f35b6101c76004803603810190808035906020019092919080359060200190929190505050610f4e565b005b6000341115156101d857600080fd5b565b6000806000600a6000600154815260200190815260200160002060009054906101000a900460ff161561047957600091505b60058054905082101561047457600090505b600e600060058481548110151561023157fe5b9060005260206000200160009054906101000a900473ffffffffffffffffffffffffffffffffffffffff1673ffffffffffffffffffffffffffffffffffffffff1673ffffffffffffffffffffffffffffffffffffffff16815260200190815260200160002080549050811015610467576002600e60006005858154811015156102b657fe5b9060005260206000200160009054906101000a900473ffffffffffffffffffffffffffffffffffffffff1673ffffffffffffffffffffffffffffffffffffffff1673ffffffffffffffffffffffffffffffffffffffff1681526020019081526020016000208281548110151561032857fe5b906000526020600020906002020160000154141561045a5760058281548110151561034f57fe5b9060005260206000200160009054906101000a900473ffffffffffffffffffffffffffffffffffffffff1673ffffffffffffffffffffffffffffffffffffffff166108fc6002600e60006005878154811015156103a857fe5b9060005260206000200160009054906101000a900473ffffffffffffffffffffffffffffffffffffffff1673ffffffffffffffffffffffffffffffffffffffff1673ffffffffffffffffffffffffffffffffffffffff1681526020019081526020016000208481548110151561041a57fe5b906000526020600020906002020160010154029081150290604051600060405180830381858888f19350505050158015610458573d6000803e3d6000fd5b505b808060010191505061021e565b818060010192505061020c565b610c46565b600b6000600154815260200190815260200160002060009054906101000a900460ff161561071357600091505b60068054905082101561070e57600090505b600e60006006848154811015156104cb57fe5b9060005260206000200160009054906101000a900473ffffffffffffffffffffffffffffffffffffffff1673ffffffffffffffffffffffffffffffffffffffff1673ffffffffffffffffffffffffffffffffffffffff16815260200190815260200160002080549050811015610701576003600e600060068581548110151561055057fe5b9060005260206000200160009054906101000a900473ffffffffffffffffffffffffffffffffffffffff1673ffffffffffffffffffffffffffffffffffffffff1673ffffffffffffffffffffffffffffffffffffffff168152602001908152602001600020828154811015156105c257fe5b90600052602060002090600202016000015414156106f4576006828154811015156105e957fe5b9060005260206000200160009054906101000a900473ffffffffffffffffffffffffffffffffffffffff1673ffffffffffffffffffffffffffffffffffffffff166108fc6003600e600060068781548110151561064257fe5b9060005260206000200160009054906101000a900473ffffffffffffffffffffffffffffffffffffffff1673ffffffffffffffffffffffffffffffffffffffff1673ffffffffffffffffffffffffffffffffffffffff168152602001908152602001600020848154811015156106b457fe5b906000526020600020906002020160010154029081150290604051600060405180830381858888f193505050501580156106f2573d6000803e3d6000fd5b505b80806001019150506104b8565b81806001019250506104a6565b610c45565b600c6000600154815260200190815260200160002060009054906101000a900460ff16156109ad57600091505b6007805490508210156109a857600090505b600e600060078481548110151561076557fe5b9060005260206000200160009054906101000a900473ffffffffffffffffffffffffffffffffffffffff1673ffffffffffffffffffffffffffffffffffffffff1673ffffffffffffffffffffffffffffffffffffffff1681526020019081526020016000208054905081101561099b576005600e60006007858154811015156107ea57fe5b9060005260206000200160009054906101000a900473ffffffffffffffffffffffffffffffffffffffff1673ffffffffffffffffffffffffffffffffffffffff1673ffffffffffffffffffffffffffffffffffffffff1681526020019081526020016000208281548110151561085c57fe5b906000526020600020906002020160000154141561098e5760078281548110151561088357fe5b9060005260206000200160009054906101000a900473ffffffffffffffffffffffffffffffffffffffff1673ffffffffffffffffffffffffffffffffffffffff166108fc6005600e60006007878154811015156108dc57fe5b9060005260206000200160009054906101000a900473ffffffffffffffffffffffffffffffffffffffff1673ffffffffffffffffffffffffffffffffffffffff1673ffffffffffffffffffffffffffffffffffffffff1681526020019081526020016000208481548110151561094e57fe5b906000526020600020906002020160010154029081150290604051600060405180830381858888f1935050505015801561098c573d6000803e3d6000fd5b505b8080600101915050610752565b8180600101925050610740565b610c44565b600d6000600154815260200190815260200160002060009054906101000a900460ff1615610c4357600091505b600880549050821015610c4257600090505b600e60006008848154811015156109ff57fe5b9060005260206000200160009054906101000a900473ffffffffffffffffffffffffffffffffffffffff1673ffffffffffffffffffffffffffffffffffffffff1673ffffffffffffffffffffffffffffffffffffffff16815260200190815260200160002080549050811015610c35576032600e6000600885815481101515610a8457fe5b9060005260206000200160009054906101000a900473ffffffffffffffffffffffffffffffffffffffff1673ffffffffffffffffffffffffffffffffffffffff1673ffffffffffffffffffffffffffffffffffffffff16815260200190815260200160002082815481101515610af657fe5b9060005260206000209060020201600001541415610c2857600882815481101515610b1d57fe5b9060005260206000200160009054906101000a900473ffffffffffffffffffffffffffffffffffffffff1673ffffffffffffffffffffffffffffffffffffffff166108fc6032600e6000600887815481101515610b7657fe5b9060005260206000200160009054906101000a900473ffffffffffffffffffffffffffffffffffffffff1673ffffffffffffffffffffffffffffffffffffffff1673ffffffffffffffffffffffffffffffffffffffff16815260200190815260200160002084815481101515610be857fe5b906000526020600020906002020160010154029081150290604051600060405180830381858888f19350505050158015610c26573d6000803e3d6000fd5b505b80806001019150506109ec565b81806001019250506109da565b5b5b5b5b600e60003373ffffffffffffffffffffffffffffffffffffffff1673ffffffffffffffffffffffffffffffffffffffff1681526020019081526020016000206000610c9191906114e1565b600091505b600980549050821015610d3457600e6000600984815481101515610cb657fe5b9060005260206000200160009054906101000a900473ffffffffffffffffffffffffffffffffffffffff1673ffffffffffffffffffffffffffffffffffffffff1673ffffffffffffffffffffffffffffffffffffffff1681526020019081526020016000206000610d2791906114e1565b8180600101925050610c96565b60056000610d429190611505565b60066000610d509190611505565b60076000610d5e9190611505565b60086000610d6c9190611505565b6001549250505090565b6000606080610d83611237565b600181905550600a6000600154815260200190815260200160002060009054906101000a900460ff1615610dee576040805190810160405280600481526020017f47726579000000000000000000000000000000000000000000000000000000008152509050610f1c565b600b6000600154815260200190815260200160002060009054906101000a900460ff1615610e53576040805190810160405280600381526020017f52656400000000000000000000000000000000000000000000000000000000008152509050610f1b565b600c6000600154815260200190815260200160002060009054906101000a900460ff1615610eb8576040805190810160405280600481526020017f426c7565000000000000000000000000000000000000000000000000000000008152509050610f1a565b600d6000600154815260200190815260200160002060009054906101000a900460ff1615610f19576040805190810160405280600481526020017f476f6c640000000000000000000000000000000000000000000000000000000081525090505b5b5b5b6001548192509250509091565b60005481565b60003073ffffffffffffffffffffffffffffffffffffffff1631905090565b610f56611526565b8234141515610f6457600080fd5b60408051908101604052808381526020018481525090506002821415610fef5760053390806001815401808255809150509060018203906000526020600020016000909192909190916101000a81548173ffffffffffffffffffffffffffffffffffffffff021916908373ffffffffffffffffffffffffffffffffffffffff1602179055505061114a565b60038214156110635760063390806001815401808255809150509060018203906000526020600020016000909192909190916101000a81548173ffffffffffffffffffffffffffffffffffffffff021916908373ffffffffffffffffffffffffffffffffffffffff16021790555050611149565b60058214156110d75760073390806001815401808255809150509060018203906000526020600020016000909192909190916101000a81548173ffffffffffffffffffffffffffffffffffffffff021916908373ffffffffffffffffffffffffffffffffffffffff16021790555050611148565b60328214156111475760083390806001815401808255809150509060018203906000526020600020016000909192909190916101000a81548173ffffffffffffffffffffffffffffffffffffffff021916908373ffffffffffffffffffffffffffffffffffffffff160217905550505b5b5b5b60093390806001815401808255809150509060018203906000526020600020016000909192909190916101000a81548173ffffffffffffffffffffffffffffffffffffffff021916908373ffffffffffffffffffffffffffffffffffffffff16021790555050600e60003373ffffffffffffffffffffffffffffffffffffffff1673ffffffffffffffffffffffffffffffffffffffff16815260200190815260200160002081908060018154018082558091505090600182039060005260206000209060020201600090919290919091506000820151816000015560208201518160010155505050505050565b6000806000604c60024233600054604051602001808481526020018373ffffffffffffffffffffffffffffffffffffffff1673ffffffffffffffffffffffffffffffffffffffff166c0100000000000000000000000002815260140182815260200193505050506040516020818303038152906040526040518082805190602001908083835b6020831015156112e257805182526020820191506020810190506020830392506112bd565b6001836020036101000a0380198251168184511680821785525050505050509050019150506020604051808303816000865af1158015611326573d6000803e3d6000fd5b5050506040513d602081101561133b57600080fd5b81019080805190602001909291905050506001900481151561135957fe5b069150600080815480929190600101919050555060348211156114d8576000808154809291906001019190505550604c60024233600054604051602001808481526020018373ffffffffffffffffffffffffffffffffffffffff1673ffffffffffffffffffffffffffffffffffffffff166c0100000000000000000000000002815260140182815260200193505050506040516020818303038152906040526040518082805190602001908083835b60208310151561142d5780518252602082019150602081019050602083039250611408565b6001836020036101000a0380198251168184511680821785525050505050509050019150506020604051808303816000865af1158015611471573d6000803e3d6000fd5b5050506040513d602081101561148657600080fd5b8101908080519060200190929190505050600190048115156114a457fe5b06905060348111156114d057808211156114c25780820391506114c8565b81810391505b8192506114dc565b8092506114dc565b8192505b505090565b50805460008255600202906000526020600020908101906115029190611540565b50565b5080546000825590600052602060002090810190611523919061156f565b50565b604080519081016040528060008152602001600081525090565b61156c91905b8082111561156857600080820160009055600182016000905550600201611546565b5090565b90565b61159191905b8082111561158d576000816000905550600101611575565b5090565b905600a165627a7a723058202dd5d03e79e810d45d372ee131111e0a983e51d3a652e346fde5beea430983650029",
  "source": "pragma solidity ^0.4.20;\r\ncontract TRXED {\r\n    uint public lastBlock;\r\n    uint winningNum;\r\n    address[] accounts;\r\n    mapping(string => uint) luckyNum;\r\n    mapping(address => uint) balances;\r\n    address[] twoMultiplyer;\r\n    address[] threeMultiplyer;\r\n    address[] fiveMultiplyer;\r\n    address[] fiftyMultiplyer;\r\n    address[] allBets;\r\n\r\n    struct betType{\r\n        uint betChosen;\r\n        uint256 value;\r\n    }\r\n    mapping (uint => bool) twoMultiplyerValue;\r\n    mapping (uint => bool) threeMultiplyerValue;\r\n    mapping (uint => bool) fiveMultiplyerValue;\r\n    mapping (uint => bool) fiftyMultiplyerValue;\r\n    mapping(address => betType[]) userBets;\r\n\r\n    event Transfer(address indexed from, address indexed to, uint256 value);\r\n    event RandResult(uint256 value, string color);\r\n\r\n    constructor()public{ //Runs only at creation\r\n        for (uint i = 1;i<52;i++){\r\n            if(i % 2 ==0){\r\n                twoMultiplyerValue[i] = true;\r\n            }\r\n        }\r\n\r\n        fiftyMultiplyerValue[0] =true;\r\n        fiftyMultiplyerValue[52] =true;\r\n        for ( i = 1;i<52;i+=10){\r\n            fiveMultiplyerValue[i] = true;\r\n        }\r\n        for ( i = 7;i<52;i+=10){\r\n            fiveMultiplyerValue[i] = true;\r\n        }\r\n        for (i = 1;i<52;i++){\r\n            if(!((twoMultiplyerValue[i]==true) || (fiveMultiplyerValue[i]==true) || (fiftyMultiplyerValue[i]==true))){\r\n                threeMultiplyerValue[i] =true;\r\n            }\r\n\r\n        }\r\n\r\n\r\n        lastBlock = block.number;\r\n    }\r\n\r\n    function PlaceBet(uint256 _betAmount,uint _betChosen) public payable{\r\n        require(msg.value == _betAmount);\r\n        betType memory placeBet = betType({\r\n            betChosen: _betChosen,\r\n            value: _betAmount\r\n            });\r\n        if(_betChosen == 2){\r\n            twoMultiplyer.push(msg.sender);\r\n\r\n        } else if(_betChosen == 3){\r\n            threeMultiplyer.push(msg.sender);\r\n\r\n        } else if(_betChosen == 5){\r\n            fiveMultiplyer.push(msg.sender);\r\n\r\n        } else if(_betChosen == 50){\r\n            fiftyMultiplyer.push(msg.sender);\r\n\r\n        }\r\n        allBets.push(msg.sender);\r\n        userBets[msg.sender].push(placeBet);\r\n\r\n    }\r\n    //3000000000000000000\r\n    function _generateRandNum()private returns (uint){\r\n        uint randomnumber = uint(sha256(abi.encodePacked(now, msg.sender, lastBlock))) % 76;\r\n        lastBlock++;\r\n        if(randomnumber >52){\r\n            lastBlock++;\r\n            uint randomnumber2 = uint(sha256(abi.encodePacked(now, msg.sender, lastBlock))) % 76;\r\n\r\n            if(randomnumber2>52){\r\n                if(randomnumber>randomnumber2){\r\n                    randomnumber = randomnumber - randomnumber2;\r\n                } else{\r\n                    randomnumber = randomnumber2 - randomnumber;\r\n                }\r\n                return(randomnumber);\r\n            } else{\r\n                return(randomnumber2);\r\n            }\r\n        }\r\n\r\n        return(randomnumber);\r\n    }\r\n\r\n    function generateRandNum() public returns(uint, string){\r\n        winningNum = _generateRandNum();\r\n        string memory color;\r\n        if(twoMultiplyerValue[winningNum]){\r\n            color = \"Grey\";\r\n        }else if(threeMultiplyerValue[winningNum]){\r\n            color = \"Red\";\r\n        } else if(fiveMultiplyerValue[winningNum]){\r\n            color = \"Blue\";\r\n        }else if(fiftyMultiplyerValue[winningNum]){\r\n            color = \"Gold\";\r\n        }\r\n        return (winningNum, color) ;\r\n    }\r\n\r\n    function payWinners() public returns (uint){\r\n        uint i;\r\n        uint j;\r\n        if (twoMultiplyerValue[winningNum]){\r\n            for( i = 0; i<twoMultiplyer.length;i++){\r\n                for(  j = 0;j<userBets[twoMultiplyer[i]].length;j++){\r\n                    if(userBets[twoMultiplyer[i]][j].betChosen == 2){\r\n                        twoMultiplyer[i].transfer((userBets[twoMultiplyer[i]][j].value*2));\r\n                    }\r\n                }\r\n            }\r\n        } else if (threeMultiplyerValue[winningNum]){\r\n            for( i = 0; i<threeMultiplyer.length;i++){\r\n                for(  j = 0;j<userBets[threeMultiplyer[i]].length;j++){\r\n                    if(userBets[threeMultiplyer[i]][j].betChosen == 3){\r\n                        threeMultiplyer[i].transfer((userBets[threeMultiplyer[i]][j].value*3));\r\n                    }\r\n                }\r\n            }\r\n        }else if (fiveMultiplyerValue[winningNum]){\r\n            for( i = 0; i<fiveMultiplyer.length;i++){\r\n                for(  j = 0;j<userBets[fiveMultiplyer[i]].length;j++){\r\n                    if(userBets[fiveMultiplyer[i]][j].betChosen == 5){\r\n                        fiveMultiplyer[i].transfer((userBets[fiveMultiplyer[i]][j].value*5));\r\n                    }\r\n                }\r\n            }\r\n        }else if (fiftyMultiplyerValue[winningNum]){\r\n            for( i = 0; i<fiftyMultiplyer.length;i++){\r\n                for(  j = 0;j<userBets[fiftyMultiplyer[i]].length;j++){\r\n                    if(userBets[fiftyMultiplyer[i]][j].betChosen == 50){\r\n                        fiftyMultiplyer[i].transfer((userBets[fiftyMultiplyer[i]][j].value*50));\r\n                    }\r\n                }\r\n            }\r\n        }\r\n        delete userBets[msg.sender];\r\n        for(i = 0; i <allBets.length;i++){\r\n            delete userBets[allBets[i]];\r\n        }\r\n        delete twoMultiplyer;\r\n        delete threeMultiplyer;\r\n        delete fiveMultiplyer;\r\n        delete fiftyMultiplyer;\r\n\r\n        return winningNum;\r\n    }\r\n\r\n    function paySmartContract() public payable{\r\n        require(msg.value>0);\r\n    }\r\n\r\n    function returnContractBalance () public view returns(uint256){\r\n        return  address(this).balance;\r\n    }\r\n\r\n\r\n}",
  "sourcePath": "C:\\Users\\Jo\\Downloads\\TRON DEV\\TRXED\\TRXED_MAIN\\tron\\contracts\\TRXED.sol",
  "compiler": {
    "name": "solc",
    "version": "0.4.24-develop.2018.8.28+commit.3ba0cdec.mod.Emscripten.clang"
  },
  "schemaVersion": "2.0.1",
  "updatedAt": "2019-03-15T07:34:46.860Z"
}